:03000000020003F8
:0C000300787FE4F6D8FD75812302004AE6
:1000BB000E0868656C6C6F206C63643136303200EF
:1000CB000E1648656C6C6F204C4344313630320051
:0900F500C2A58F801200FED2A703
:0C00FE007F017E8E7D02DDFEDEFADFF663
:01010A0022D2
:0A010B00C2A7C2A61200F5C2A72287
:0A011500C2A7D2A61200F5C2A7226D
:03011F007F00223C
:1000DC007F3812010B7F0612010B7F0C12010B7F74
:0900EC000112010B7F8002010BDF
:10008F00E4FC1200DC74082CF8E6FF60071201157F
:10009F000CBC10F17FC012010BE4FC74162CF8E6B7
:0C00AF00FF60071201150CBC10F180FE70
:10000F0002008FE493A3F8E493A34003F68001F278
:10001F0008DFF48029E493A3F85407240CC8C333F2
:10002F00C4540F4420C8834004F456800146F6DFC1
:10003F00E4800B01020408102040809000BBE47E96
:10004F00019360BCA3FF543F30E509541FFEE493B6
:10005F00A360010ECF54C025E060A840B8E493A37D
:10006F00FAE493A3F8E493A3C8C582C8CAC583CAA8
:10007F00F0A3C8C582C8CAC583CADFE9DEE780BE60
:0100DB000024
:00000001FF
