:03000000020A42AF
:0C0A4200787FE4F6D8FD758129020A894E
:0F0BAE000A0D3F065B4F666D7D077F6F010840A4
:0C0BBE007F017E8E7D02DDFEDEFADFF698
:010BCA002208
:040B9500AB07AA06FA
:100B9900E4F583F582C3E5829BE5839A5006120B3F
:040BA900BEA380F176
:010BAD002225
:080BE5007F477E02DEFEDFFA0D
:010BED0022E5
:080BEE007F0B7E02DEFEDFFA40
:010BF60022DC
:080BF7007F037E08DEFEDFFA39
:010BFF0022D3
:040C09007F15DFFE76
:010C0D0022C4
:040C0E007F06DFFE80
:010C120022BF
:080C00007F017E02DEFEDFFA37
:010C080022C9
:100B3100C2B7120BE5D2B7120BEE30B713120C008D
:100B41000522D3E52294F47480948140ED7F002244
:020B51007F0122
:010B5300227F
:090B54007F027E00120B957FCC9C
:020B5D00AD07E2
:100B5F00E4FBC2B700ED1392B7120BEED2B7EDC3A1
:060B6F0013FD0BBB08ECB6
:010B7500225D
:100B0600E4FDF522FCFBC2B7000000D2B7120C00D0
:100B1600A2B7E433FCC43333335480FFEBC3134F23
:0A0B2600FB120BF70DBD08DEAF0354
:010B300022A2
:0D0BCB00D2B7120B31120B547F44020B5DA8
:0D0BD800D2B7120B31120B547FBE020B5D21
:1003F500E4F521F520F51FF51E120BCB120BD812D3
:100405000B068F1D120B068F1CAB21AA20A91FA856
:100415001EC000C001C002C003E51C5401FF339596
:10042500E0FEEFC4F8540FC868FDEEC454F048FC74
:10043500120290D003D002D001D00012000A8F2101
:100445008E208D1F8C1EE51CA2E713F51CAB21AA7F
:1004550020A91FA81EC000C001C002C0035401FF8F
:100465003395E0FEEF7805C333CE33CED8F9FDAC36
:1004750006EC120290D003D002D001D00012000A7F
:100485008F218E208D1F8C1EE51CA2E713F51CAB5A
:1004950021AA20A91FA81EC000C001C002C0035484
:1004A50001FF3395E0FEEF7806C333CE33CED8F99E
:1004B500FDAC06EC120290D003D002D001D00012A0
:1004C500000A8F218E208D1F8C1EAB21AA20A91F0B
:1004D500A81EC000C001C002C003E51D5401FC12E6
:1004E5000295E4FBFA7980783D1200FBD003D00237
:1004F500D001D00012000A8F218E208D1F8C1EE5A1
:100505001DA2E713F51DAB21AA20A91FA81EC00037
:10051500C001C002C0035401FC120295E4FBFAF9C4
:10052500783E1200FBD003D002D001D00012000AA1
:100535008F218E208D1F8C1EE51DA2E713F51DABA7
:1005450021AA20A91FA81EC000C001C002C00354D3
:1005550001FC120295E4FBFA7980783E1200FBD08B
:1005650003D002D001D00012000A8F218E208D1FEA
:100575008C1EE51DA2E713F51DAB21AA20A91FA816
:100585001EC000C001C002C0035401FC120295E464
:10059500FBFAF9783F1200FBD003D002D001D0005E
:1005A50012000A8F218E208D1F8C1EE51DA2E713D8
:1005B500F51DAB21AA20A91FA81EC000C001C002BD
:1005C500C0035401FC120295D003D002D001D00023
:1005D50012000A8F218E208D1F8C1EE51DA2E713A8
:1005E500F51DAB21AA20A91FA81EC000C001C0028D
:1005F500C0035401FF3395E0FEEF25E0FDEE33FC2B
:10060500120290D003D002D001D00012000A8F212F
:100615008E208D1F8C1EE51DA2E713F51DAB21AAAB
:1006250020A91FA81EC000C001C002C0035401FFBD
:100635003395E0FEEF7802C333CE33CED8F9FDAC67
:1006450006EC120290D003D002D001D00012000AAD
:100655008F218E208D1F8C1EE51DA2E713F51DAB86
:1006650021AA20A91FA81EC000C001C002C00354B2
:1006750001FF3395E0FEEF7803C333CE33CED8F9CF
:10068500FDAC06EC120290D003D002D001D00012CE
:10069500000A8F218E208D1F8C1EE51C54F8FFBF8C
:1006A500F80DAF2112027A8F218E208D1F8C1EAF7F
:0706B50021AE20AD1FAC1EB9
:0106BC00221B
:080971008F1F8E1E8D1D8C1CD2
:10097900E4F520F521F522F523FFFEFDFCAB1FAAC6
:100989001EA91DA81C1202015018850809AF1FAE27
:100999001EAD1DAC1C12027A8F1F8E1E8D1D8C1C64
:1009A900800BE4F509AF1FAE1EAD1DAC1C1202C9C8
:1009B9008E208F21E4FFFE7D207C41AB1FAA1EA95A
:1009C9001DA81C1200FBC004C005C006C007AE204C
:1009D900AF217C007D0A12034AAC06AD07EC120276
:1009E90090A804A905AA06AB07D007D006D005D060
:1009F900041200061202C98E228F23AE20AF217C79
:100A0900007D6412035CAA04AB057D0A7C00AF0378
:100A1900AE0212035C740D2FF8E6F50A7D0A7C001C
:100A2900AF03AE0212035C740D2DF8E62480F50BBA
:080A3900740D2523F8E6F50C0D
:010A41002292
:100ACE00E4FDED14600E146013146014240370160C
:100ADE00C2A28002D2A2C2A3C2A4800AC2A2800273
:100AEE00D2A2D2A3C2A474092DF8E6F580120BE5AA
:070AFE00E4F5800DBD04CBFF
:010B050022CD
:1006BD00E4F528EFF529AB27AA26A925A824C00023
:1006CD00C001C002C003E5285401FF3395E0FEEFE1
:1006DD00C4F8540FC868FDEEC454F048FC120290E3
:1006ED00D003D002D001D00012000A8F278E268DA4
:1006FD00258C24E528A2E713F528AB27AA26A925E2
:10070D00A824C000C001C002C0035401FF3395E00E
:10071D00FEEF7805C333CE33CED8F9FDAC06EC121F
:10072D000290D003D002D001D00012000A8F278E84
:10073D00268D258C24E528A2E713F528AB27AA26BC
:10074D00A925A824C000C001C002C0035401FF3375
:10075D0095E0FEEF7806C333CE33CED8F9FDAC0667
:10076D00EC120290D003D002D001D00012000A8FFB
:10077D00278E268D258C24AB27AA26A925A824C033
:10078D0000C001C002C003E5295401FC120295E42A
:10079D00FBFA7980783D1200FBD003D002D001D056
:1007AD000012000A8F278E268D258C24E529A2E7BD
:1007BD0013F529AB27AA26A925A824C000C001C07E
:1007CD0002C0035401FC120295E4FBFAF9783E12C3
:1007DD0000FBD003D002D001D00012000A8F278E6B
:1007ED00268D258C24E529A2E713F529AB27AA260A
:1007FD00A925A824C000C001C002C0035401FC12E9
:10080D000295E4FBFA7980783E1200FBD003D0020A
:10081D00D001D00012000A8F278E268D258C24E55D
:10082D0029A2E713F529AB27AA26A925A824C000DC
:10083D00C001C002C0035401FC120295E4FBFAF999
:10084D00783F1200FBD003D002D001D00012000A75
:10085D008F278E268D258C24E529A2E713F529AB4C
:10086D0027AA26A925A824C000C001C002C0035490
:10087D0001FC120295D003D002D001D00012000A63
:10088D008F278E268D258C24E529A2E713F529AB1C
:10089D0027AA26A925A824C000C001C002C0035460
:1008AD0001FF3395E0FEEF25E0FDEE33FC120290E3
:1008BD00D003D002D001D00012000A8F278E268DD2
:1008CD00258C24E529A2E713F529AB27AA26A9250E
:1008DD00A824C000C001C002C0035401FF3395E03D
:1008ED00FEEF7802C333CE33CED8F9FDAC06EC1251
:1008FD000290D003D002D001D00012000A8F278EB3
:10090D00268D258C24E529A2E713F529AB27AA26E8
:10091D00A925A824C000C001C002C0035401FF33A3
:10092D0095E0FEEF7803C333CE33CED8F9FDAC0698
:10093D00EC120290D003D002D001D00012000A8F29
:10094D00278E268D258C24C3E52864809480500B3A
:10095D0012027A8F278E268D258C24AF27AE26ADD9
:03096D0025AC2492
:010970002264
:100B760075170BE4F51BF51AF519F5181203F58F21
:0F0B86001B8E1A8D198C18120971120ACE80ED70
:10000300020335E86480F8E933E83360110460F0F3
:10001300ED33EC337009E8FCE9FDEAFEEBFF220463
:1000230060DED3EB9FEA9EE99DE8C2E78CF0C2F75E
:1000330095F0400CE8CCF8E9CDF9EACEFAEBCFFB2A
:1000430012030085D0F05804700320D5B3E8047080
:10005300075002B2D502033F92D5EC0460F7E4CC1B
:10006300C0E0C398F8603B94186008400DD0E0FBF3
:10007300020317E4FBFAC9FC8028E830E406E4C96C
:10008300FBE4CAFCE830E305E4C9CACBFCE8540747
:100093006010F8C3E913F9EA13FAEB13FBEC13FC52
:1000A300D8F130F52FC3E49CFCEF9BFFEE9AFEEDF5
:1000B30099FDD0E0FBEF4E4D4C701222DB0302039F
:1000C3003CEC2CFCEF33FFEE33FEED33FDED30E77C
:1000D300EB020317EF2BFFEE3AFEED39FDD0E0FB09
:1000E30050130BBB000302033FED13FDEE13FEEFB2
:0800F30013FFEC13FC020317DC
:1000FB00EC4D6011E8497017ED33EC3304600DE4FF
:10010B00FCFFFEFD22E933E8330470F802033512DD
:10011B00030058046009E4CC2481500628500902DE
:10012B00033F28400302033CC0E0EB4A7044B98014
:10013B0006D0E0FB02032BEF4E701CBD8008EBFFDB
:10014B00EAFEE9FD80EBE98DF0A4FEE5F00201E4A7
:10015B00E9CDF9EAFEEBFFEF89F0A4FCE5F0CE89DF
:10016B00F0A42EFFE435F0CD89F0A42DFEE435F09C
:10017B008067EF4E7005BD80D780C3EF8BF0A4ACCA
:10018B00F0EE8BF0A42CFCE435F0F8EF8AF0A42C05
:10019B00E5F038FCE433CB8DF0A42CFCE5F03BF818
:1001AB00EE8AF0A42CFCE5F038F8E433CF89F0A408
:1001BB002CFCE5F038CF3400CE89F0A42FFFE5F00E
:1001CB003EFEE433C98DF0A42EFEE5F039CD8AF066
:1001DB00A42FFFE5F03EFEE43DFD33D0E0FB5007DE
:1001EB000BBB000F02033FEC2CFCEF33FFEE33FE97
:0601FB00ED33FD020317C5
:1002010074F8CC6480CCC86480C8F58204604FC3A4
:10021100EB9FF5F0EA9E42F0E99D42F0E89C45F043
:10022100603C501DE5825FFFE582D313CB5BCBF4CD
:100231002B5582FB50280ABA002409B900200880F6
:100241001DE5825BFBE582D313CF5FCFF4C3132F90
:100251005582FF50090EBE00050DBD00010CC3EB18
:100261009FF5F0EA9E42F0E99D42F0E89C45F0607E
:0902710007CC4820E701B3EC22A0
:10027A00ED33EC33600A047003BD8004ECB2E7FC92
:01028A002251
:10028B0075F020800E75F010800575F0087D007EEE
:10029B00007F003392D530D503120392EC3340101C
:1002AB00EF33FFEE33FEED33FDEC33FCD5F0ED22F7
:0E02BB00E5F0247EA2D513CC92E7CDCEFF2233
:1002C900EDD2E7CD33EC3392D524814006E4FFFE2D
:1002D900FDFC22FCE4CFCECDCC24E0501174FF808C
:1002E900EDC3CC13CCCD13CDCE13CECF13CF047029
:0702F900F030D5DE02039294
:10030000E9D2E7C933E833F892D5EDD2E7CD33EC43
:0703100033FC5002B2D522BC
:10031700EC30E7100FBF000C0EBE00080DBD000447
:100327000BEB6014A2D5EB13FCED92E7FD2274FFF3
:10033700FCFDFEFF22E480F8A2D574FF13FC7D804C
:03034700E480EF60
:100A4E00020B76E493A3F8E493A34003F68001F23D
:100A5E0008DFF48029E493A3F85407240CC8C333A9
:100A6E00C4540F4420C8834004F456800146F6DF78
:100A7E00E4800B0102040810204080900BAEE47E4F
:100A8E00019360BCA3FF543F30E509541FFEE4936D
:100A9E00A360010ECF54C025E060A840B8E493A334
:100AAE00FAE493A3F8E493A3C8C582C8CAC583CA5F
:100ABE00F0A3C8C582C8CAC583CADFE9DEE780BE17
:010BBD000037
:10034A00EF8DF0A4A8F0CF8CF0A428CE8DF0A42EC7
:02035A00FE2281
:10035C00C2D5EC30E709B2D5E4C39DFDE49CFCEEBC
:10036C0030E715B2D5E4C39FFFE49EFE1203A0C391
:10037C00E49DFDE49CFC80031203A030D507C3E48C
:06038C009FFFE49EFE222B
:0E039200C3E49FFFE49EFEE49DFDE49CFC227C
:1003A000BC000BBE0029EF8DF084FFADF022E4CC41
:1003B000F875F008EF2FFFEE33FEEC33FCEE9DEC0A
:1003C000984005FCEE9DFE0FD5F0E9E4CEFD22ED50
:1003D000F8F5F0EE8420D21CFEADF075F008EF2F9A
:1003E000FFED33FD4007985006D5F0F222C398FD8B
:0503F0000FD5F0EA2228
:00000001FF
