:03000000020003F8
:0C000300787FE4F6D8FD75811702004AF2
:0F02B400010C000A0D3F065B4F666D7D077F6FE3
:0702A400D2A01202ABD2A1AF
:0802AB007F017E02DEFEDFFA96
:0102B3002228
:0402C4007FE87E034E
:0B02C800EF1FAC0670011E4C70F62208
:0D02D3001202A4C2A01202ABC2A10202AB33
:0A02ED00C2A01202A6D2A00202ABCA
:10026C00E4FD1202A430A00F0DEDD394C840F6C2E9
:0E027C00A11202AB7F0022C2A11202AB7F01D1
:01028A002251
:0201F800AD0751
:1001FA00E4FBF517EDC4131313540124FF92A0ED89
:10020A0025E0FD1202A6C2A11202AB0BBB08E51241
:09021A00026CEF7002FF227F016B
:0102230022B8
:10022400E4FDFCD2A01202ABD2A11202ABED25E098
:10023400FDA2A0E43342051202ABC2A11202AB0C30
:05024400BC08E5AF0558
:010249002292
:10028B00AC05AA071202D37FA01201F8AF0212012C
:09029B00F8AF041201F80202EDB3
:02024A00AC07FF
:10024C001202D37FA01201F8AF041201F81202D3EC
:0F025C007FA11201F8120224AD071202EDAF05C7
:01026B002270
:10016E0020B0101202C420B007AD0C7F0112028B1A
:10017E0030B0FD20B1101202C420B1077F0112026F
:10018E004A8F0C30B1FD20B2151202C420B20C05FC
:10019E000CE50CD394FF4003E4F50C30B2FD20B314
:0E01AE000C1202C420B303E4F50C30B3FD22A2
:10008F00AB077E007C037DE8120119740D2FF8E693
:10009F00F508EBFF7E007C037DE81201197E007FDF
:1000AF0064CFCDCFCECCCE120119740D2FF8E6F55B
:1000BF0009EBFF7E007C037DE81201197E007F644F
:1000CF00CFCDCFCECCCE1201197E007F0ACFCDCFB0
:1000DF00CECCCE120119740D2FF8E6F50AAF037EC0
:1000EF00007C037DE81201197E007F64CFCDCFCE57
:1000FF00CCCE1201197E007F0ACFCDCFCECCCE123F
:0A010F000119740D2DF8E6F50B221E
:1001BC00E4FDED14600E1460131460142403701627
:1001CC00C2A28002D2A2C2A3C2A4800AC2A280028E
:1001DC00D2A2D2A3C2A474082DF8E6F5807F647E67
:0B01EC00001202C8E4F5800DBD04C73E
:0101F70022E5
:0D02E00012016EAF0C12008F1201BC80F3F2
:10000F000202E0E493A3F8E493A34003F68001F225
:10001F0008DFF48029E493A3F85407240CC8C333F2
:10002F00C4540F4420C8834004F456800146F6DFC1
:10003F00E4800B01020408102040809002B4E47E9B
:10004F00019360BCA3FF543F30E509541FFEE493B6
:10005F00A360010ECF54C025E060A840B8E493A37D
:10006F00FAE493A3F8E493A3C8C582C8CAC583CAA8
:10007F00F0A3C8C582C8CAC583CADFE9DEE780BE60
:0102C300003A
:10011900BC000BBE0029EF8DF084FFADF022E4CCCA
:10012900F875F008EF2FFFEE33FEEC33FCEE9DEC93
:10013900984005FCEE9DFE0FD5F0E9E4CEFD22EDD9
:10014900F8F5F0EE8420D21CFEADF075F008EF2F23
:10015900FFED33FD4007985006D5F0F222C398FD14
:050169000FD5F0EA22B1
:00000001FF
