:0300000002078F65
:0C078F00787FE4F6D8FD75812E0207D6B5
:10097000C290C292C2918FA0120996D2901209968B
:03098000C2902200
:10098300C290D292C2918FA0120996D29012099668
:03099300C29022ED
:1008FE007F381209707F061209707F0C1209707F03
:09090E00011209707F80020970DA
:1008DB00C2B71209A3D2B71209AC30B7131209BEB3
:1008EB00052BD3E52B94F47480948140ED7F00228B
:0208FB007F017B
:0108FD0022D8
:0208B7008F2B85
:1008B900E4F52CF52CC2B700E52B1392B71209AC5D
:1008C900D2B7E52BC313F52B052CE52CC3940840AF
:0108D900E43A
:0108DA0022FB
:10087F00E4F52BF52CF52DF52EF52BC2B700000066
:10088F00D2B71209BEA2B7E433F52DC433333354B4
:10089F0080FFE52EC3134FF52E1209B5052BE52B5F
:0708AF00C3940840D6AF2EF0
:0108B600221F
:10093000D2B71208DB7F027E001209177FCC1208A3
:06094000B77F440208B776
:10094600D2B71208DB7F027E001209177FCC12088D
:06095600B77FBE0208B7E6
:1003F500E4F52AF529F528F52712093012094612E0
:10040500087F8F2612087F8F25AB2AAA29A928A83D
:1004150027C000C001C002C003E5255401FF339584
:10042500E0FEEFC4F8540FC868FDEEC454F048FC74
:10043500120290D003D002D001D00012000A8F2AF8
:100445008E298D288C27E525A2E713F525AB2AAA49
:1004550029A928A827C000C001C002C0035401FF74
:100465003395E0FEEF7805C333CE33CED8F9FDAC36
:1004750006EC120290D003D002D001D00012000A7F
:100485008F2A8E298D288C27E525A2E713F525AB24
:100495002AAA29A928A827C000C001C002C0035460
:1004A50001FF3395E0FEEF7806C333CE33CED8F99E
:1004B500FDAC06EC120290D003D002D001D00012A0
:1004C500000A8F2A8E298D288C27AB2AAA29A928CC
:1004D500A827C000C001C002C003E5265401FC12D4
:1004E5000295E4FBFA7980783D1200FBD003D00237
:1004F500D001D00012000A8F2A8E298D288C27E57D
:1005050026A2E713F526AB2AAA29A928A827C00001
:10051500C001C002C0035401FC120295E4FBFAF9C4
:10052500783E1200FBD003D002D001D00012000AA1
:100535008F2A8E298D288C27E526A2E713F526AB71
:100545002AAA29A928A827C000C001C002C00354AF
:1005550001FC120295E4FBFA7980783E1200FBD08B
:1005650003D002D001D00012000A8F2A8E298D28CF
:100575008C27E526A2E713F526AB2AAA29A928A8E0
:1005850027C000C001C002C0035401FC120295E45B
:10059500FBFAF9783F1200FBD003D002D001D0005E
:1005A50012000A8F2A8E298D288C27E526A2E713AB
:1005B500F526AB2AAA29A928A827C000C001C00290
:1005C500C0035401FC120295D003D002D001D00023
:1005D50012000A8F2A8E298D288C27E526A2E7137B
:1005E500F526AB2AAA29A928A827C000C001C00260
:1005F500C0035401FF3395E0FEEF25E0FDEE33FC2B
:10060500120290D003D002D001D00012000A8F2A26
:100615008E298D288C27E526A2E713F526AB2AAA75
:1006250029A928A827C000C001C002C0035401FFA2
:100635003395E0FEEF7802C333CE33CED8F9FDAC67
:1006450006EC120290D003D002D001D00012000AAD
:100655008F2A8E298D288C27E526A2E713F526AB50
:100665002AAA29A928A827C000C001C002C003548E
:1006750001FF3395E0FEEF7803C333CE33CED8F9CF
:10068500FDAC06EC120290D003D002D001D00012CE
:10069500000A8F2A8E298D288C27E52554F8FFBF5F
:1006A500F80DAF2A12027A8F2A8E298D288C27AF52
:0706B5002AAE29AD28AC2795
:0106BC00221B
:10095C00110F63757272656E742074656D70206909
:03096C00733A00DB
:0806BD008F288E278D268C2565
:1006C500E4F529F52AF52BF52CFFFEFDFCAB28AA50
:1006D50027A926A825120201501875082DAF28AEA6
:1006E50027AD26AC2512027A8F288E278D268C25DC
:1006F500800B75082BAF28AE27AD26AC251202C995
:100705008E298F2AE4FFFE7D207C41AB28AA27A9EC
:1007150026A8251200FBC004C005C006C007AE29E7
:10072500AF2A7C007D0A12034AAC06AD07EC120223
:1007350090A804A905AA06AB07D007D006D005D016
:10074500041200061202C98E2B8F2CAE29AF2A7C0B
:10075500007D6412035CAA04AB057D0A7C00AF032F
:10076500AE0212035CEF2430F5097D0A7C00AF036D
:10077500AE0212035CED2430F50A750B2EE52C2430
:0907850030F50C750D43E4F50E8E
:01078E002248
:10081B00E4F523F522F521F520F5241208FE7F01DE
:10082B001209707F80120970E4F524740F2524F8E7
:10083B00E6FF600C1209830524E524C3941040EBFA
:10084B007FC01209701203F58F238E228D218C200D
:10085B001206BDE4F52474082524F8E6FF600C129B
:10086B0009830524E524C3941040EB7FE87E031233
:04087B00091780AA2F
:0C0996007F017E8E7D02DDFEDEFADFF6C2
:0109A2002232
:04091700AB07AA067A
:10091B00E4F583F582C3E5829BE5839A50061209C1
:04092B0096A380F11E
:01092F0022A5
:0809A3007F477E02DEFEDFFA51
:0109AB002229
:0809AC007F0B7E02DEFEDFFA84
:0109B4002220
:0809B5007F037E08DEFEDFFA7D
:0109BD002217
:0409C7007F15DFFEBB
:0109CB002209
:0409CC007F06DFFEC5
:0109D0002204
:0809BE007F017E02DEFEDFFA7C
:0109C600220E
:10000300020335E86480F8E933E83360110460F0F3
:10001300ED33EC337009E8FCE9FDEAFEEBFF220463
:1000230060DED3EB9FEA9EE99DE8C2E78CF0C2F75E
:1000330095F0400CE8CCF8E9CDF9EACEFAEBCFFB2A
:1000430012030085D0F05804700320D5B3E8047080
:10005300075002B2D502033F92D5EC0460F7E4CC1B
:10006300C0E0C398F8603B94186008400DD0E0FBF3
:10007300020317E4FBFAC9FC8028E830E406E4C96C
:10008300FBE4CAFCE830E305E4C9CACBFCE8540747
:100093006010F8C3E913F9EA13FAEB13FBEC13FC52
:1000A300D8F130F52FC3E49CFCEF9BFFEE9AFEEDF5
:1000B30099FDD0E0FBEF4E4D4C701222DB0302039F
:1000C3003CEC2CFCEF33FFEE33FEED33FDED30E77C
:1000D300EB020317EF2BFFEE3AFEED39FDD0E0FB09
:1000E30050130BBB000302033FED13FDEE13FEEFB2
:0800F30013FFEC13FC020317DC
:1000FB00EC4D6011E8497017ED33EC3304600DE4FF
:10010B00FCFFFEFD22E933E8330470F802033512DD
:10011B00030058046009E4CC2481500628500902DE
:10012B00033F28400302033CC0E0EB4A7044B98014
:10013B0006D0E0FB02032BEF4E701CBD8008EBFFDB
:10014B00EAFEE9FD80EBE98DF0A4FEE5F00201E4A7
:10015B00E9CDF9EAFEEBFFEF89F0A4FCE5F0CE89DF
:10016B00F0A42EFFE435F0CD89F0A42DFEE435F09C
:10017B008067EF4E7005BD80D780C3EF8BF0A4ACCA
:10018B00F0EE8BF0A42CFCE435F0F8EF8AF0A42C05
:10019B00E5F038FCE433CB8DF0A42CFCE5F03BF818
:1001AB00EE8AF0A42CFCE5F038F8E433CF89F0A408
:1001BB002CFCE5F038CF3400CE89F0A42FFFE5F00E
:1001CB003EFEE433C98DF0A42EFEE5F039CD8AF066
:1001DB00A42FFFE5F03EFEE43DFD33D0E0FB5007DE
:1001EB000BBB000F02033FEC2CFCEF33FFEE33FE97
:0601FB00ED33FD020317C5
:1002010074F8CC6480CCC86480C8F58204604FC3A4
:10021100EB9FF5F0EA9E42F0E99D42F0E89C45F043
:10022100603C501DE5825FFFE582D313CB5BCBF4CD
:100231002B5582FB50280ABA002409B900200880F6
:100241001DE5825BFBE582D313CF5FCFF4C3132F90
:100251005582FF50090EBE00050DBD00010CC3EB18
:100261009FF5F0EA9E42F0E99D42F0E89C45F0607E
:0902710007CC4820E701B3EC22A0
:10027A00ED33EC33600A047003BD8004ECB2E7FC92
:01028A002251
:10028B0075F020800E75F010800575F0087D007EEE
:10029B00007F003392D530D503120392EC3340101C
:1002AB00EF33FFEE33FEED33FDEC33FCD5F0ED22F7
:0E02BB00E5F0247EA2D513CC92E7CDCEFF2233
:1002C900EDD2E7CD33EC3392D524814006E4FFFE2D
:1002D900FDFC22FCE4CFCECDCC24E0501174FF808C
:1002E900EDC3CC13CCCD13CDCE13CECF13CF047029
:0702F900F030D5DE02039294
:10030000E9D2E7C933E833F892D5EDD2E7CD33EC43
:0703100033FC5002B2D522BC
:10031700EC30E7100FBF000C0EBE00080DBD000447
:100327000BEB6014A2D5EB13FCED92E7FD2274FFF3
:10033700FCFDFEFF22E480F8A2D574FF13FC7D804C
:03034700E480EF60
:10079B0002081BE493A3F8E493A34003F68001F251
:1007AB0008DFF48029E493A3F85407240CC8C3335F
:1007BB00C4540F4420C8834004F456800146F6DF2E
:1007CB00E4800B010204081020408090095CE47E59
:1007DB00019360BCA3FF543F30E509541FFEE49323
:1007EB00A360010ECF54C025E060A840B8E493A3EA
:1007FB00FAE493A3F8E493A3C8C582C8CAC583CA15
:10080B00F0A3C8C582C8CAC583CADFE9DEE780BECC
:01096F000087
:10034A00EF8DF0A4A8F0CF8CF0A428CE8DF0A42EC7
:02035A00FE2281
:10035C00C2D5EC30E709B2D5E4C39DFDE49CFCEEBC
:10036C0030E715B2D5E4C39FFFE49EFE1203A0C391
:10037C00E49DFDE49CFC80031203A030D507C3E48C
:06038C009FFFE49EFE222B
:0E039200C3E49FFFE49EFEE49DFDE49CFC227C
:1003A000BC000BBE0029EF8DF084FFADF022E4CC41
:1003B000F875F008EF2FFFEE33FEEC33FCEE9DEC0A
:1003C000984005FCEE9DFE0FD5F0E9E4CEFD22ED50
:1003D000F8F5F0EE8420D21CFEADF075F008EF2F9A
:1003E000FFED33FD4007985006D5F0F222C398FD8B
:0503F0000FD5F0EA2228
:00000001FF
