:10007D000102040810204080000000000000000074
:10008D000000000000000000010204081020408064
:10009D0040445464457E4444447E45645444400089
:1000AD00000000FF49494949494949FF0000000046
:1000BD000000F010101010FF10101010F0000000D4
:1000CD0000000F04040404FF040404040F000000E6
:0B011600EF1FAC0670011E4C70F622BB
:10000300D2B6D2B5E4FEEFC4131313540124FF9206
:10001300B4EF25E0FFC2B60000D2B60EBE08E7E497
:10002300FEEDC4131313540124FF92B4ED25E0FD38
:10003300C2B60000D2B60EBE08E7E4FEEBC413134B
:1000430013540124FF92B4EB25E0FBC2B60000D2A7
:10005300B60EBE08E7E4FEE50BC4131313540124E4
:10006300FF92B4E50B25E0F50BC2B60000D2B60E45
:09007300BE08E4C2B50000D2B5DC
:01007C002261
:1000DD00E4FAEA90008D93F4FFEA90007D93F4FD2D
:1000ED00EA9000AD93FBEA90009D93F50B1200038F
:0D00FD007F0A7E001201160ABA10D780D3C8
:0300000002010AF0
:0C010A00787FE4F6D8FD75810B0200DD63
:00000001FF
