:10000300D2B6D2B5E4FEEFC4131313540124FF9206
:10001300B4EF25E0FFC2B60000D2B60EBE08E7E497
:10002300FEEDC4131313540124FF92B4ED25E0FD38
:10003300C2B60000D2B60EBE08E7E4FEEBC413134B
:1000430013540124FF92B4EB25E0FBC2B60000D2A7
:10005300B60EBE08E7E4FEE50BC4131313540124E4
:10006300FF92B4E50B25E0F50BC2B60000D2B60E45
:09007300BE08E4C2B50000D2B5DC
:01007C002261
:0E007D00750B01E4FB7DFE7FFF12000380FE89
:0300000002008B70
:0C008B00787FE4F6D8FD75810B02007D43
:00000001FF
